{
  "_format": "hh-sol-artifact-1",
  "contractName": "PartyVault",
  "sourceName": "contracts/PartyVault.sol",
  "abi": [
    {
      "inputs": [],
      "stateMutability": "nonpayable",
      "type": "constructor"
    },
    {
      "inputs": [],
      "name": "greet",
      "outputs": [
        {
          "internalType": "string",
          "name": "",
          "type": "string"
        }
      ],
      "stateMutability": "pure",
      "type": "function"
    },
    {
      "inputs": [],
      "name": "owner",
      "outputs": [
        {
          "internalType": "address",
          "name": "",
          "type": "address"
        }
      ],
      "stateMutability": "view",
      "type": "function"
    }
  ],
  "bytecode": "0x608060405234801561001057600080fd5b50336000806101000a81548173ffffffffffffffffffffffffffffffffffffffff021916908373ffffffffffffffffffffffffffffffffffffffff16021790555061021c806100606000396000f3fe608060405234801561001057600080fd5b50600436106100365760003560e01c80638da5cb5b1461003b578063cfae321714610059575b600080fd5b610043610077565b6040516100509190610119565b60405180910390f35b61006161009b565b60405161006e91906101c4565b60405180910390f35b60008054906101000a900473ffffffffffffffffffffffffffffffffffffffff1681565b60606040518060400160405280601a81526020017f57656c636f6d6520746f207468652050617274795661756c7421000000000000815250905090565b600073ffffffffffffffffffffffffffffffffffffffff82169050919050565b6000610103826100d8565b9050919050565b610113816100f8565b82525050565b600060208201905061012e600083018461010a565b92915050565b600081519050919050565b600082825260208201905092915050565b60005b8381101561016e578082015181840152602081019050610153565b60008484015250505050565b6000601f19601f8301169050919050565b600061019682610134565b6101a0818561013f565b93506101b0818560208601610150565b6101b98161017a565b840191505092915050565b600060208201905081810360008301526101de818461018b565b90509291505056fea2646970667358221220f09f870cc81c69fb9f2e03a800a7878b144f9c889d8af8a11cb598f0227dcc6664736f6c63430008140033",
  "linkReferences": {},
  "deployedLinkReferences": {}
}