{
  "_format": "hh-sol-artifact-1",
  "contractName": "LootNFT",
  "sourceName": "contracts/LootNFT.sol",
  "abi": [
    {
      "inputs": [
        {
          "internalType": "address",
          "name": "_partyVault",
          "type": "address"
        }
      ],
      "stateMutability": "nonpayable",
      "type": "constructor"
    },
    {
      "inputs": [
        {
          "internalType": "address",
          "name": "sender",
          "type": "address"
        },
        {
          "internalType": "uint256",
          "name": "tokenId",
          "type": "uint256"
        },
        {
          "internalType": "address",
          "name": "owner",
          "type": "address"
        }
      ],
      "name": "ERC721IncorrectOwner",
      "type": "error"
    },
    {
      "inputs": [
        {
          "internalType": "address",
          "name": "operator",
          "type": "address"
        },
        {
          "internalType": "uint256",
          "name": "tokenId",
          "type": "uint256"
        }
      ],
      "name": "ERC721InsufficientApproval",
      "type": "error"
    },
    {
      "inputs": [
        {
          "internalType": "address",
          "name": "approver",
          "type": "address"
        }
      ],
      "name": "ERC721InvalidApprover",
      "type": "error"
    },
    {
      "inputs": [
        {
          "internalType": "address",
          "name": "operator",
          "type": "address"
        }
      ],
      "name": "ERC721InvalidOperator",
      "type": "error"
    },
    {
      "inputs": [
        {
          "internalType": "address",
          "name": "owner",
          "type": "address"
        }
      ],
      "name": "ERC721InvalidOwner",
      "type": "error"
    },
    {
      "inputs": [
        {
          "internalType": "address",
          "name": "receiver",
          "type": "address"
        }
      ],
      "name": "ERC721InvalidReceiver",
      "type": "error"
    },
    {
      "inputs": [
        {
          "internalType": "address",
          "name": "sender",
          "type": "address"
        }
      ],
      "name": "ERC721InvalidSender",
      "type": "error"
    },
    {
      "inputs": [
        {
          "internalType": "uint256",
          "name": "tokenId",
          "type": "uint256"
        }
      ],
      "name": "ERC721NonexistentToken",
      "type": "error"
    },
    {
      "anonymous": false,
      "inputs": [
        {
          "indexed": true,
          "internalType": "address",
          "name": "owner",
          "type": "address"
        },
        {
          "indexed": true,
          "internalType": "address",
          "name": "approved",
          "type": "address"
        },
        {
          "indexed": true,
          "internalType": "uint256",
          "name": "tokenId",
          "type": "uint256"
        }
      ],
      "name": "Approval",
      "type": "event"
    },
    {
      "anonymous": false,
      "inputs": [
        {
          "indexed": true,
          "internalType": "address",
          "name": "owner",
          "type": "address"
        },
        {
          "indexed": true,
          "internalType": "address",
          "name": "operator",
          "type": "address"
        },
        {
          "indexed": false,
          "internalType": "bool",
          "name": "approved",
          "type": "bool"
        }
      ],
      "name": "ApprovalForAll",
      "type": "event"
    },
    {
      "anonymous": false,
      "inputs": [
        {
          "indexed": true,
          "internalType": "address",
          "name": "from",
          "type": "address"
        },
        {
          "indexed": true,
          "internalType": "address",
          "name": "to",
          "type": "address"
        },
        {
          "indexed": true,
          "internalType": "uint256",
          "name": "tokenId",
          "type": "uint256"
        }
      ],
      "name": "Transfer",
      "type": "event"
    },
    {
      "inputs": [
        {
          "internalType": "address",
          "name": "to",
          "type": "address"
        },
        {
          "internalType": "uint256",
          "name": "tokenId",
          "type": "uint256"
        }
      ],
      "name": "approve",
      "outputs": [],
      "stateMutability": "nonpayable",
      "type": "function"
    },
    {
      "inputs": [
        {
          "internalType": "address",
          "name": "owner",
          "type": "address"
        }
      ],
      "name": "balanceOf",
      "outputs": [
        {
          "internalType": "uint256",
          "name": "",
          "type": "uint256"
        }
      ],
      "stateMutability": "view",
      "type": "function"
    },
    {
      "inputs": [
        {
          "internalType": "uint256",
          "name": "tokenId",
          "type": "uint256"
        }
      ],
      "name": "getApproved",
      "outputs": [
        {
          "internalType": "address",
          "name": "",
          "type": "address"
        }
      ],
      "stateMutability": "view",
      "type": "function"
    },
    {
      "inputs": [
        {
          "internalType": "address",
          "name": "owner",
          "type": "address"
        },
        {
          "internalType": "address",
          "name": "operator",
          "type": "address"
        }
      ],
      "name": "isApprovedForAll",
      "outputs": [
        {
          "internalType": "bool",
          "name": "",
          "type": "bool"
        }
      ],
      "stateMutability": "view",
      "type": "function"
    },
    {
      "inputs": [
        {
          "internalType": "address",
          "name": "to",
          "type": "address"
        },
        {
          "internalType": "string",
          "name": "metadataURI",
          "type": "string"
        }
      ],
      "name": "mintLoot",
      "outputs": [],
      "stateMutability": "nonpayable",
      "type": "function"
    },
    {
      "inputs": [],
      "name": "name",
      "outputs": [
        {
          "internalType": "string",
          "name": "",
          "type": "string"
        }
      ],
      "stateMutability": "view",
      "type": "function"
    },
    {
      "inputs": [],
      "name": "nextTokenId",
      "outputs": [
        {
          "internalType": "uint256",
          "name": "",
          "type": "uint256"
        }
      ],
      "stateMutability": "view",
      "type": "function"
    },
    {
      "inputs": [
        {
          "internalType": "uint256",
          "name": "tokenId",
          "type": "uint256"
        }
      ],
      "name": "ownerOf",
      "outputs": [
        {
          "internalType": "address",
          "name": "",
          "type": "address"
        }
      ],
      "stateMutability": "view",
      "type": "function"
    },
    {
      "inputs": [],
      "name": "partyVault",
      "outputs": [
        {
          "internalType": "address",
          "name": "",
          "type": "address"
        }
      ],
      "stateMutability": "view",
      "type": "function"
    },
    {
      "inputs": [
        {
          "internalType": "address",
          "name": "from",
          "type": "address"
        },
        {
          "internalType": "address",
          "name": "to",
          "type": "address"
        },
        {
          "internalType": "uint256",
          "name": "tokenId",
          "type": "uint256"
        }
      ],
      "name": "safeTransferFrom",
      "outputs": [],
      "stateMutability": "nonpayable",
      "type": "function"
    },
    {
      "inputs": [
        {
          "internalType": "address",
          "name": "from",
          "type": "address"
        },
        {
          "internalType": "address",
          "name": "to",
          "type": "address"
        },
        {
          "internalType": "uint256",
          "name": "tokenId",
          "type": "uint256"
        },
        {
          "internalType": "bytes",
          "name": "data",
          "type": "bytes"
        }
      ],
      "name": "safeTransferFrom",
      "outputs": [],
      "stateMutability": "nonpayable",
      "type": "function"
    },
    {
      "inputs": [
        {
          "internalType": "address",
          "name": "operator",
          "type": "address"
        },
        {
          "internalType": "bool",
          "name": "approved",
          "type": "bool"
        }
      ],
      "name": "setApprovalForAll",
      "outputs": [],
      "stateMutability": "nonpayable",
      "type": "function"
    },
    {
      "inputs": [
        {
          "internalType": "bytes4",
          "name": "interfaceId",
          "type": "bytes4"
        }
      ],
      "name": "supportsInterface",
      "outputs": [
        {
          "internalType": "bool",
          "name": "",
          "type": "bool"
        }
      ],
      "stateMutability": "view",
      "type": "function"
    },
    {
      "inputs": [],
      "name": "symbol",
      "outputs": [
        {
          "internalType": "string",
          "name": "",
          "type": "string"
        }
      ],
      "stateMutability": "view",
      "type": "function"
    },
    {
      "inputs": [
        {
          "internalType": "uint256",
          "name": "tokenId",
          "type": "uint256"
        }
      ],
      "name": "tokenURI",
      "outputs": [
        {
          "internalType": "string",
          "name": "",
          "type": "string"
        }
      ],
      "stateMutability": "view",
      "type": "function"
    },
    {
      "inputs": [
        {
          "internalType": "address",
          "name": "from",
          "type": "address"
        },
        {
          "internalType": "address",
          "name": "to",
          "type": "address"
        },
        {
          "internalType": "uint256",
          "name": "tokenId",
          "type": "uint256"
        }
      ],
      "name": "transferFrom",
      "outputs": [],
      "stateMutability": "nonpayable",
      "type": "function"
    }
  ],
  "bytecode": "0x60806040523480156200001157600080fd5b50604051620024f2380380620024f283398181016040528101906200003791906200017b565b6040518060400160405280600f81526020017f436861696e5175657374204c6f6f7400000000000000000000000000000000008152506040518060400160405280600381526020017f43514c00000000000000000000000000000000000000000000000000000000008152508160009081620000b4919062000427565b508060019081620000c6919062000427565b50505080600760006101000a81548173ffffffffffffffffffffffffffffffffffffffff021916908373ffffffffffffffffffffffffffffffffffffffff160217905550506200050e565b600080fd5b600073ffffffffffffffffffffffffffffffffffffffff82169050919050565b6000620001438262000116565b9050919050565b620001558162000136565b81146200016157600080fd5b50565b60008151905062000175816200014a565b92915050565b60006020828403121562000194576200019362000111565b5b6000620001a48482850162000164565b91505092915050565b600081519050919050565b7f4e487b7100000000000000000000000000000000000000000000000000000000600052604160045260246000fd5b7f4e487b7100000000000000000000000000000000000000000000000000000000600052602260045260246000fd5b600060028204905060018216806200022f57607f821691505b602082108103620002455762000244620001e7565b5b50919050565b60008190508160005260206000209050919050565b60006020601f8301049050919050565b600082821b905092915050565b600060088302620002af7fffffffffffffffffffffffffffffffffffffffffffffffffffffffffffffffff8262000270565b620002bb868362000270565b95508019841693508086168417925050509392505050565b6000819050919050565b6000819050919050565b60006200030862000302620002fc84620002d3565b620002dd565b620002d3565b9050919050565b6000819050919050565b6200032483620002e7565b6200033c62000333826200030f565b8484546200027d565b825550505050565b600090565b6200035362000344565b6200036081848462000319565b505050565b5b8181101562000388576200037c60008262000349565b60018101905062000366565b5050565b601f821115620003d757620003a1816200024b565b620003ac8462000260565b81016020851015620003bc578190505b620003d4620003cb8562000260565b83018262000365565b50505b505050565b600082821c905092915050565b6000620003fc60001984600802620003dc565b1980831691505092915050565b6000620004178383620003e9565b9150826002028217905092915050565b6200043282620001ad565b67ffffffffffffffff8111156200044e576200044d620001b8565b5b6200045a825462000216565b620004678282856200038c565b600060209050601f8311600181146200049f57600084156200048a578287015190505b62000496858262000409565b86555062000506565b601f198416620004af866200024b565b60005b82811015620004d957848901518255600182019150602085019450602081019050620004b2565b86831015620004f95784890151620004f5601f891682620003e9565b8355505b6001600288020188555050505b505050505050565b611fd4806200051e6000396000f3fe608060405234801561001057600080fd5b50600436106101005760003560e01c806375794a3c11610097578063b88d4fde11610066578063b88d4fde146102ad578063c72e31e1146102c9578063c87b56dd146102e5578063e985e9c51461031557610100565b806375794a3c146102375780637dd1944f1461025557806395d89b4114610273578063a22cb4651461029157610100565b806323b872dd116100d357806323b872dd1461019f57806342842e0e146101bb5780636352211e146101d757806370a082311461020757610100565b806301ffc9a71461010557806306fdde0314610135578063081812fc14610153578063095ea7b314610183575b600080fd5b61011f600480360381019061011a91906116e7565b610345565b60405161012c919061172f565b60405180910390f35b61013d610427565b60405161014a91906117da565b60405180910390f35b61016d60048036038101906101689190611832565b6104b9565b60405161017a91906118a0565b60405180910390f35b61019d600480360381019061019891906118e7565b6104d5565b005b6101b960048036038101906101b49190611927565b6104eb565b005b6101d560048036038101906101d09190611927565b6105ed565b005b6101f160048036038101906101ec9190611832565b61060d565b6040516101fe91906118a0565b60405180910390f35b610221600480360381019061021c919061197a565b61061f565b60405161022e91906119b6565b60405180910390f35b61023f6106d9565b60405161024c91906119b6565b60405180910390f35b61025d6106df565b60405161026a91906118a0565b60405180910390f35b61027b610705565b60405161028891906117da565b60405180910390f35b6102ab60048036038101906102a691906119fd565b610797565b005b6102c760048036038101906102c29190611b72565b6107ad565b005b6102e360048036038101906102de9190611c55565b6107d2565b005b6102ff60048036038101906102fa9190611832565b610801565b60405161030c91906117da565b60405180910390f35b61032f600480360381019061032a9190611cb5565b61086a565b60405161033c919061172f565b60405180910390f35b60007f80ac58cd000000000000000000000000000000000000000000000000000000007bffffffffffffffffffffffffffffffffffffffffffffffffffffffff1916827bffffffffffffffffffffffffffffffffffffffffffffffffffffffff1916148061041057507f5b5e139f000000000000000000000000000000000000000000000000000000007bffffffffffffffffffffffffffffffffffffffffffffffffffffffff1916827bffffffffffffffffffffffffffffffffffffffffffffffffffffffff1916145b80610420575061041f826108fe565b5b9050919050565b60606000805461043690611d24565b80601f016020809104026020016040519081016040528092919081815260200182805461046290611d24565b80156104af5780601f10610484576101008083540402835291602001916104af565b820191906000526020600020905b81548152906001019060200180831161049257829003601f168201915b5050505050905090565b60006104c482610968565b506104ce826109f0565b9050919050565b6104e782826104e2610a2d565b610a35565b5050565b600073ffffffffffffffffffffffffffffffffffffffff168273ffffffffffffffffffffffffffffffffffffffff160361055d5760006040517f64a0ae9200000000000000000000000000000000000000000000000000000000815260040161055491906118a0565b60405180910390fd5b6000610571838361056c610a2d565b610a47565b90508373ffffffffffffffffffffffffffffffffffffffff168173ffffffffffffffffffffffffffffffffffffffff16146105e7578382826040517f64283d7b0000000000000000000000000000000000000000000000000000000081526004016105de93929190611d55565b60405180910390fd5b50505050565b610608838383604051806020016040528060008152506107ad565b505050565b600061061882610968565b9050919050565b60008073ffffffffffffffffffffffffffffffffffffffff168273ffffffffffffffffffffffffffffffffffffffff16036106925760006040517f89c62b6400000000000000000000000000000000000000000000000000000000815260040161068991906118a0565b60405180910390fd5b600360008373ffffffffffffffffffffffffffffffffffffffff1673ffffffffffffffffffffffffffffffffffffffff168152602001908152602001600020549050919050565b60065481565b600760009054906101000a900473ffffffffffffffffffffffffffffffffffffffff1681565b60606001805461071490611d24565b80601f016020809104026020016040519081016040528092919081815260200182805461074090611d24565b801561078d5780601f106107625761010080835404028352916020019161078d565b820191906000526020600020905b81548152906001019060200180831161077057829003601f168201915b5050505050905090565b6107a96107a2610a2d565b8383610c61565b5050565b6107b88484846104eb565b6107cc6107c3610a2d565b85858585610dd0565b50505050565b60006006549050600660008154809291906107ec90611dbb565b91905055506107fb8482610f81565b50505050565b606061080c82610968565b506000610817610f9f565b905060008151116108375760405180602001604052806000815250610862565b8061084184610fb6565b604051602001610852929190611e3f565b6040516020818303038152906040525b915050919050565b6000600560008473ffffffffffffffffffffffffffffffffffffffff1673ffffffffffffffffffffffffffffffffffffffff16815260200190815260200160002060008373ffffffffffffffffffffffffffffffffffffffff1673ffffffffffffffffffffffffffffffffffffffff16815260200190815260200160002060009054906101000a900460ff16905092915050565b60007f01ffc9a7000000000000000000000000000000000000000000000000000000007bffffffffffffffffffffffffffffffffffffffffffffffffffffffff1916827bffffffffffffffffffffffffffffffffffffffffffffffffffffffff1916149050919050565b60008061097483611084565b9050600073ffffffffffffffffffffffffffffffffffffffff168173ffffffffffffffffffffffffffffffffffffffff16036109e757826040517f7e2732890000000000000000000000000000000000000000000000000000000081526004016109de91906119b6565b60405180910390fd5b80915050919050565b60006004600083815260200190815260200160002060009054906101000a900473ffffffffffffffffffffffffffffffffffffffff169050919050565b600033905090565b610a4283838360016110c1565b505050565b600080610a5384611084565b9050600073ffffffffffffffffffffffffffffffffffffffff168373ffffffffffffffffffffffffffffffffffffffff1614610a9557610a94818486611286565b5b600073ffffffffffffffffffffffffffffffffffffffff168173ffffffffffffffffffffffffffffffffffffffff1614610b2657610ad76000856000806110c1565b6001600360008373ffffffffffffffffffffffffffffffffffffffff1673ffffffffffffffffffffffffffffffffffffffff168152602001908152602001600020600082825403925050819055505b600073ffffffffffffffffffffffffffffffffffffffff168573ffffffffffffffffffffffffffffffffffffffff1614610ba9576001600360008773ffffffffffffffffffffffffffffffffffffffff1673ffffffffffffffffffffffffffffffffffffffff168152602001908152602001600020600082825401925050819055505b846002600086815260200190815260200160002060006101000a81548173ffffffffffffffffffffffffffffffffffffffff021916908373ffffffffffffffffffffffffffffffffffffffff160217905550838573ffffffffffffffffffffffffffffffffffffffff168273ffffffffffffffffffffffffffffffffffffffff167fddf252ad1be2c89b69c2b068fc378daa952ba7f163c4a11628f55a4df523b3ef60405160405180910390a4809150509392505050565b600073ffffffffffffffffffffffffffffffffffffffff168273ffffffffffffffffffffffffffffffffffffffff1603610cd257816040517f5b08ba18000000000000000000000000000000000000000000000000000000008152600401610cc991906118a0565b60405180910390fd5b80600560008573ffffffffffffffffffffffffffffffffffffffff1673ffffffffffffffffffffffffffffffffffffffff16815260200190815260200160002060008473ffffffffffffffffffffffffffffffffffffffff1673ffffffffffffffffffffffffffffffffffffffff16815260200190815260200160002060006101000a81548160ff0219169083151502179055508173ffffffffffffffffffffffffffffffffffffffff168373ffffffffffffffffffffffffffffffffffffffff167f17307eab39ab6107e8899845ad3d59bd9653f200f220920489ca2b5937696c3183604051610dc3919061172f565b60405180910390a3505050565b60008373ffffffffffffffffffffffffffffffffffffffff163b1115610f7a578273ffffffffffffffffffffffffffffffffffffffff1663150b7a02868685856040518563ffffffff1660e01b8152600401610e2f9493929190611eb8565b6020604051808303816000875af1925050508015610e6b57506040513d601f19601f82011682018060405250810190610e689190611f19565b60015b610eef573d8060008114610e9b576040519150601f19603f3d011682016040523d82523d6000602084013e610ea0565b606091505b506000815103610ee757836040517f64a0ae92000000000000000000000000000000000000000000000000000000008152600401610ede91906118a0565b60405180910390fd5b805181602001fd5b63150b7a0260e01b7bffffffffffffffffffffffffffffffffffffffffffffffffffffffff1916817bffffffffffffffffffffffffffffffffffffffffffffffffffffffff191614610f7857836040517f64a0ae92000000000000000000000000000000000000000000000000000000008152600401610f6f91906118a0565b60405180910390fd5b505b5050505050565b610f9b82826040518060200160405280600081525061134a565b5050565b606060405180602001604052806000815250905090565b606060006001610fc58461136e565b01905060008167ffffffffffffffff811115610fe457610fe3611a47565b5b6040519080825280601f01601f1916602001820160405280156110165781602001600182028036833780820191505090505b509050600082602001820190505b600115611079578080600190039150507f3031323334353637383961626364656600000000000000000000000000000000600a86061a8153600a858161106d5761106c611f46565b5b04945060008503611024575b819350505050919050565b60006002600083815260200190815260200160002060009054906101000a900473ffffffffffffffffffffffffffffffffffffffff169050919050565b80806110fa5750600073ffffffffffffffffffffffffffffffffffffffff168273ffffffffffffffffffffffffffffffffffffffff1614155b1561122e57600061110a84610968565b9050600073ffffffffffffffffffffffffffffffffffffffff168373ffffffffffffffffffffffffffffffffffffffff161415801561117557508273ffffffffffffffffffffffffffffffffffffffff168173ffffffffffffffffffffffffffffffffffffffff1614155b80156111885750611186818461086a565b155b156111ca57826040517fa9fbf51f0000000000000000000000000000000000000000000000000000000081526004016111c191906118a0565b60405180910390fd5b811561122c57838573ffffffffffffffffffffffffffffffffffffffff168273ffffffffffffffffffffffffffffffffffffffff167f8c5be1e5ebec7d5bd14f71427d1e84f3dd0314c0f7b2291e5b200ac8c7c3b92560405160405180910390a45b505b836004600085815260200190815260200160002060006101000a81548173ffffffffffffffffffffffffffffffffffffffff021916908373ffffffffffffffffffffffffffffffffffffffff16021790555050505050565b6112918383836114c1565b61134557600073ffffffffffffffffffffffffffffffffffffffff168373ffffffffffffffffffffffffffffffffffffffff160361130657806040517f7e2732890000000000000000000000000000000000000000000000000000000081526004016112fd91906119b6565b60405180910390fd5b81816040517f177e802f00000000000000000000000000000000000000000000000000000000815260040161133c929190611f75565b60405180910390fd5b505050565b6113548383611582565b61136961135f610a2d565b6000858585610dd0565b505050565b600080600090507a184f03e93ff9f4daa797ed6e38ed64bf6a1f01000000000000000083106113cc577a184f03e93ff9f4daa797ed6e38ed64bf6a1f01000000000000000083816113c2576113c1611f46565b5b0492506040810190505b6d04ee2d6d415b85acef81000000008310611409576d04ee2d6d415b85acef810000000083816113ff576113fe611f46565b5b0492506020810190505b662386f26fc10000831061143857662386f26fc10000838161142e5761142d611f46565b5b0492506010810190505b6305f5e1008310611461576305f5e100838161145757611456611f46565b5b0492506008810190505b612710831061148657612710838161147c5761147b611f46565b5b0492506004810190505b606483106114a9576064838161149f5761149e611f46565b5b0492506002810190505b600a83106114b8576001810190505b80915050919050565b60008073ffffffffffffffffffffffffffffffffffffffff168373ffffffffffffffffffffffffffffffffffffffff161415801561157957508273ffffffffffffffffffffffffffffffffffffffff168473ffffffffffffffffffffffffffffffffffffffff16148061153a5750611539848461086a565b5b8061157857508273ffffffffffffffffffffffffffffffffffffffff16611560836109f0565b73ffffffffffffffffffffffffffffffffffffffff16145b5b90509392505050565b600073ffffffffffffffffffffffffffffffffffffffff168273ffffffffffffffffffffffffffffffffffffffff16036115f45760006040517f64a0ae920000000000000000000000000000000000000000000000000000000081526004016115eb91906118a0565b60405180910390fd5b600061160283836000610a47565b9050600073ffffffffffffffffffffffffffffffffffffffff168173ffffffffffffffffffffffffffffffffffffffff16146116765760006040517f73c6ac6e00000000000000000000000000000000000000000000000000000000815260040161166d91906118a0565b60405180910390fd5b505050565b6000604051905090565b600080fd5b600080fd5b60007fffffffff0000000000000000000000000000000000000000000000000000000082169050919050565b6116c48161168f565b81146116cf57600080fd5b50565b6000813590506116e1816116bb565b92915050565b6000602082840312156116fd576116fc611685565b5b600061170b848285016116d2565b91505092915050565b60008115159050919050565b61172981611714565b82525050565b60006020820190506117446000830184611720565b92915050565b600081519050919050565b600082825260208201905092915050565b60005b83811015611784578082015181840152602081019050611769565b60008484015250505050565b6000601f19601f8301169050919050565b60006117ac8261174a565b6117b68185611755565b93506117c6818560208601611766565b6117cf81611790565b840191505092915050565b600060208201905081810360008301526117f481846117a1565b905092915050565b6000819050919050565b61180f816117fc565b811461181a57600080fd5b50565b60008135905061182c81611806565b92915050565b60006020828403121561184857611847611685565b5b60006118568482850161181d565b91505092915050565b600073ffffffffffffffffffffffffffffffffffffffff82169050919050565b600061188a8261185f565b9050919050565b61189a8161187f565b82525050565b60006020820190506118b56000830184611891565b92915050565b6118c48161187f565b81146118cf57600080fd5b50565b6000813590506118e1816118bb565b92915050565b600080604083850312156118fe576118fd611685565b5b600061190c858286016118d2565b925050602061191d8582860161181d565b9150509250929050565b6000806000606084860312156119405761193f611685565b5b600061194e868287016118d2565b935050602061195f868287016118d2565b92505060406119708682870161181d565b9150509250925092565b6000602082840312156119905761198f611685565b5b600061199e848285016118d2565b91505092915050565b6119b0816117fc565b82525050565b60006020820190506119cb60008301846119a7565b92915050565b6119da81611714565b81146119e557600080fd5b50565b6000813590506119f7816119d1565b92915050565b60008060408385031215611a1457611a13611685565b5b6000611a22858286016118d2565b9250506020611a33858286016119e8565b9150509250929050565b600080fd5b600080fd5b7f4e487b7100000000000000000000000000000000000000000000000000000000600052604160045260246000fd5b611a7f82611790565b810181811067ffffffffffffffff82111715611a9e57611a9d611a47565b5b80604052505050565b6000611ab161167b565b9050611abd8282611a76565b919050565b600067ffffffffffffffff821115611add57611adc611a47565b5b611ae682611790565b9050602081019050919050565b82818337600083830152505050565b6000611b15611b1084611ac2565b611aa7565b905082815260208101848484011115611b3157611b30611a42565b5b611b3c848285611af3565b509392505050565b600082601f830112611b5957611b58611a3d565b5b8135611b69848260208601611b02565b91505092915050565b60008060008060808587031215611b8c57611b8b611685565b5b6000611b9a878288016118d2565b9450506020611bab878288016118d2565b9350506040611bbc8782880161181d565b925050606085013567ffffffffffffffff811115611bdd57611bdc61168a565b5b611be987828801611b44565b91505092959194509250565b600080fd5b600080fd5b60008083601f840112611c1557611c14611a3d565b5b8235905067ffffffffffffffff811115611c3257611c31611bf5565b5b602083019150836001820283011115611c4e57611c4d611bfa565b5b9250929050565b600080600060408486031215611c6e57611c6d611685565b5b6000611c7c868287016118d2565b935050602084013567ffffffffffffffff811115611c9d57611c9c61168a565b5b611ca986828701611bff565b92509250509250925092565b60008060408385031215611ccc57611ccb611685565b5b6000611cda858286016118d2565b9250506020611ceb858286016118d2565b9150509250929050565b7f4e487b7100000000000000000000000000000000000000000000000000000000600052602260045260246000fd5b60006002820490506001821680611d3c57607f821691505b602082108103611d4f57611d4e611cf5565b5b50919050565b6000606082019050611d6a6000830186611891565b611d7760208301856119a7565b611d846040830184611891565b949350505050565b7f4e487b7100000000000000000000000000000000000000000000000000000000600052601160045260246000fd5b6000611dc6826117fc565b91507fffffffffffffffffffffffffffffffffffffffffffffffffffffffffffffffff8203611df857611df7611d8c565b5b600182019050919050565b600081905092915050565b6000611e198261174a565b611e238185611e03565b9350611e33818560208601611766565b80840191505092915050565b6000611e4b8285611e0e565b9150611e578284611e0e565b91508190509392505050565b600081519050919050565b600082825260208201905092915050565b6000611e8a82611e63565b611e948185611e6e565b9350611ea4818560208601611766565b611ead81611790565b840191505092915050565b6000608082019050611ecd6000830187611891565b611eda6020830186611891565b611ee760408301856119a7565b8181036060830152611ef98184611e7f565b905095945050505050565b600081519050611f13816116bb565b92915050565b600060208284031215611f2f57611f2e611685565b5b6000611f3d84828501611f04565b91505092915050565b7f4e487b7100000000000000000000000000000000000000000000000000000000600052601260045260246000fd5b6000604082019050611f8a6000830185611891565b611f9760208301846119a7565b939250505056fea2646970667358221220955ebda35566a36d76b6b77b7ce8c90f8c5b623400bab7252f43ce7c7985955164736f6c63430008140033",
  "linkReferences": {},
  "deployedLinkReferences": {}
}