{
  "_format": "hh-sol-artifact-1",
  "contractName": "CombatEngine",
  "sourceName": "contracts/CombatEngine.sol",
  "abi": [
    {
      "anonymous": false,
      "inputs": [
        {
          "indexed": true,
          "internalType": "bytes32",
          "name": "raidId",
          "type": "bytes32"
        },
        {
          "indexed": false,
          "internalType": "bool",
          "name": "success",
          "type": "bool"
        }
      ],
      "name": "RaidResolved",
      "type": "event"
    },
    {
      "inputs": [],
      "name": "getRandom",
      "outputs": [
        {
          "internalType": "uint256",
          "name": "",
          "type": "uint256"
        }
      ],
      "stateMutability": "view",
      "type": "function"
    },
    {
      "inputs": [
        {
          "internalType": "bytes32",
          "name": "raidId",
          "type": "bytes32"
        },
        {
          "internalType": "address[]",
          "name": "participants",
          "type": "address[]"
        },
        {
          "internalType": "uint256",
          "name": "bossHP",
          "type": "uint256"
        },
        {
          "internalType": "uint256",
          "name": "bossATK",
          "type": "uint256"
        }
      ],
      "name": "startRaid",
      "outputs": [],
      "stateMutability": "nonpayable",
      "type": "function"
    }
  ],
  "bytecode": "0x608060405234801561001057600080fd5b5061051b806100206000396000f3fe608060405234801561001057600080fd5b50600436106100365760003560e01c80635477ce0c1461003b578063aacc5a1714610057575b600080fd5b61005560048036038101906100509190610331565b610075565b005b61005f6100ba565b60405161006c91906103c3565b60405180910390f35b600060019050847f9f16e5611d453ae541a0bec7894649bc9209fe287516bb3bd90cf266e8bd406e826040516100ab91906103f9565b60405180910390a25050505050565b60006001436100c99190610443565b40426040516020016100dc9291906104b9565b6040516020818303038152906040528051906020012060001c905090565b6000604051905090565b600080fd5b600080fd5b6000819050919050565b6101218161010e565b811461012c57600080fd5b50565b60008135905061013e81610118565b92915050565b600080fd5b6000601f19601f8301169050919050565b7f4e487b7100000000000000000000000000000000000000000000000000000000600052604160045260246000fd5b61019282610149565b810181811067ffffffffffffffff821117156101b1576101b061015a565b5b80604052505050565b60006101c46100fa565b90506101d08282610189565b919050565b600067ffffffffffffffff8211156101f0576101ef61015a565b5b602082029050602081019050919050565b600080fd5b600073ffffffffffffffffffffffffffffffffffffffff82169050919050565b600061023182610206565b9050919050565b61024181610226565b811461024c57600080fd5b50565b60008135905061025e81610238565b92915050565b6000610277610272846101d5565b6101ba565b9050808382526020820190506020840283018581111561029a57610299610201565b5b835b818110156102c357806102af888261024f565b84526020840193505060208101905061029c565b5050509392505050565b600082601f8301126102e2576102e1610144565b5b81356102f2848260208601610264565b91505092915050565b6000819050919050565b61030e816102fb565b811461031957600080fd5b50565b60008135905061032b81610305565b92915050565b6000806000806080858703121561034b5761034a610104565b5b60006103598782880161012f565b945050602085013567ffffffffffffffff81111561037a57610379610109565b5b610386878288016102cd565b93505060406103978782880161031c565b92505060606103a88782880161031c565b91505092959194509250565b6103bd816102fb565b82525050565b60006020820190506103d860008301846103b4565b92915050565b60008115159050919050565b6103f3816103de565b82525050565b600060208201905061040e60008301846103ea565b92915050565b7f4e487b7100000000000000000000000000000000000000000000000000000000600052601160045260246000fd5b600061044e826102fb565b9150610459836102fb565b925082820390508181111561047157610470610414565b5b92915050565b6000819050919050565b61049261048d8261010e565b610477565b82525050565b6000819050919050565b6104b36104ae826102fb565b610498565b82525050565b60006104c58285610481565b6020820191506104d582846104a2565b602082019150819050939250505056fea2646970667358221220e47433adbe2ca495be8745261798a3bf50770dfcd1eeaf3a4c78b8886c2755c964736f6c63430008140033",
  "linkReferences": {},
  "deployedLinkReferences": {}
}